{
  "_format": "hh-sol-artifact-1",
  "contractName": "Hodlem",
  "sourceName": "contracts/Hodlem.sol",
  "abi": [
    {
      "inputs": [
        {
          "internalType": "address",
          "name": "_tokenAddress",
          "type": "address"
        }
      ],
      "stateMutability": "nonpayable",
      "type": "constructor"
    },
    {
      "anonymous": false,
      "inputs": [
        {
          "indexed": false,
          "internalType": "uint256",
          "name": "handId",
          "type": "uint256"
        },
        {
          "indexed": false,
          "internalType": "address",
          "name": "player",
          "type": "address"
        },
        {
          "indexed": false,
          "internalType": "uint256",
          "name": "betAmount",
          "type": "uint256"
        }
      ],
      "name": "BetMade",
      "type": "event"
    },
    {
      "anonymous": false,
      "inputs": [
        {
          "indexed": false,
          "internalType": "uint256",
          "name": "handId",
          "type": "uint256"
        },
        {
          "indexed": false,
          "internalType": "uint256",
          "name": "halfPot",
          "type": "uint256"
        }
      ],
      "name": "DrawSettled",
      "type": "event"
    },
    {
      "anonymous": false,
      "inputs": [
        {
          "indexed": false,
          "internalType": "uint256",
          "name": "handId",
          "type": "uint256"
        },
        {
          "indexed": false,
          "internalType": "address",
          "name": "bigBlind",
          "type": "address"
        }
      ],
      "name": "HandCancelled",
      "type": "event"
    },
    {
      "anonymous": false,
      "inputs": [
        {
          "indexed": false,
          "internalType": "uint256",
          "name": "handId",
          "type": "uint256"
        },
        {
          "indexed": false,
          "internalType": "address",
          "name": "bigBlind",
          "type": "address"
        },
        {
          "indexed": false,
          "internalType": "uint256",
          "name": "betAmount",
          "type": "uint256"
        }
      ],
      "name": "HandCreated",
      "type": "event"
    },
    {
      "anonymous": false,
      "inputs": [
        {
          "indexed": false,
          "internalType": "uint256",
          "name": "handId",
          "type": "uint256"
        },
        {
          "indexed": false,
          "internalType": "address",
          "name": "winner",
          "type": "address"
        },
        {
          "indexed": false,
          "internalType": "uint256",
          "name": "totalPot",
          "type": "uint256"
        }
      ],
      "name": "HandEnded",
      "type": "event"
    },
    {
      "anonymous": false,
      "inputs": [
        {
          "indexed": false,
          "internalType": "uint256",
          "name": "handId",
          "type": "uint256"
        },
        {
          "indexed": false,
          "internalType": "address",
          "name": "smallBlind",
          "type": "address"
        },
        {
          "indexed": false,
          "internalType": "uint256",
          "name": "betAmount",
          "type": "uint256"
        }
      ],
      "name": "HandJoined",
      "type": "event"
    },
    {
      "anonymous": false,
      "inputs": [
        {
          "indexed": true,
          "internalType": "address",
          "name": "previousOwner",
          "type": "address"
        },
        {
          "indexed": true,
          "internalType": "address",
          "name": "newOwner",
          "type": "address"
        }
      ],
      "name": "OwnershipTransferred",
      "type": "event"
    },
    {
      "anonymous": false,
      "inputs": [
        {
          "indexed": false,
          "internalType": "uint256",
          "name": "amount",
          "type": "uint256"
        },
        {
          "indexed": false,
          "internalType": "address",
          "name": "by",
          "type": "address"
        }
      ],
      "name": "TokensWithdrawn",
      "type": "event"
    },
    {
      "inputs": [],
      "name": "DEGEN",
      "outputs": [
        {
          "internalType": "contract IERC20",
          "name": "",
          "type": "address"
        }
      ],
      "stateMutability": "view",
      "type": "function"
    },
    {
      "inputs": [],
      "name": "RAKE",
      "outputs": [
        {
          "internalType": "uint256",
          "name": "",
          "type": "uint256"
        }
      ],
      "stateMutability": "view",
      "type": "function"
    },
    {
      "inputs": [
        {
          "internalType": "uint256",
          "name": "_handId",
          "type": "uint256"
        }
      ],
      "name": "cancelHand",
      "outputs": [],
      "stateMutability": "nonpayable",
      "type": "function"
    },
    {
      "inputs": [
        {
          "internalType": "uint256",
          "name": "_buyIn",
          "type": "uint256"
        },
        {
          "internalType": "address",
          "name": "_smallBlind",
          "type": "address"
        }
      ],
      "name": "createHand",
      "outputs": [],
      "stateMutability": "nonpayable",
      "type": "function"
    },
    {
      "inputs": [
        {
          "internalType": "uint256",
          "name": "_handId",
          "type": "uint256"
        },
        {
          "internalType": "address",
          "name": "_winner",
          "type": "address"
        }
      ],
      "name": "endHand",
      "outputs": [],
      "stateMutability": "nonpayable",
      "type": "function"
    },
    {
      "inputs": [
        {
          "internalType": "uint256",
          "name": "_handId",
          "type": "uint256"
        }
      ],
      "name": "getHand",
      "outputs": [
        {
          "components": [
            {
              "internalType": "address",
              "name": "bigBlind",
              "type": "address"
            },
            {
              "internalType": "address",
              "name": "smallBlind",
              "type": "address"
            },
            {
              "internalType": "uint256",
              "name": "bigBlindBetTotal",
              "type": "uint256"
            },
            {
              "internalType": "uint256",
              "name": "smallBlindBetTotal",
              "type": "uint256"
            },
            {
              "internalType": "bool",
              "name": "isActive",
              "type": "bool"
            },
            {
              "internalType": "address",
              "name": "winner",
              "type": "address"
            }
          ],
          "internalType": "struct Hodlem.Hand",
          "name": "",
          "type": "tuple"
        }
      ],
      "stateMutability": "view",
      "type": "function"
    },
    {
      "inputs": [],
      "name": "handId",
      "outputs": [
        {
          "internalType": "uint256",
          "name": "",
          "type": "uint256"
        }
      ],
      "stateMutability": "view",
      "type": "function"
    },
    {
      "inputs": [
        {
          "internalType": "uint256",
          "name": "",
          "type": "uint256"
        }
      ],
      "name": "hands",
      "outputs": [
        {
          "internalType": "address",
          "name": "bigBlind",
          "type": "address"
        },
        {
          "internalType": "address",
          "name": "smallBlind",
          "type": "address"
        },
        {
          "internalType": "uint256",
          "name": "bigBlindBetTotal",
          "type": "uint256"
        },
        {
          "internalType": "uint256",
          "name": "smallBlindBetTotal",
          "type": "uint256"
        },
        {
          "internalType": "bool",
          "name": "isActive",
          "type": "bool"
        },
        {
          "internalType": "address",
          "name": "winner",
          "type": "address"
        }
      ],
      "stateMutability": "view",
      "type": "function"
    },
    {
      "inputs": [
        {
          "internalType": "uint256",
          "name": "_handId",
          "type": "uint256"
        }
      ],
      "name": "joinHand",
      "outputs": [],
      "stateMutability": "nonpayable",
      "type": "function"
    },
    {
      "inputs": [
        {
          "internalType": "uint256",
          "name": "_handId",
          "type": "uint256"
        },
        {
          "internalType": "uint256",
          "name": "_betAmount",
          "type": "uint256"
        }
      ],
      "name": "makeBet",
      "outputs": [],
      "stateMutability": "nonpayable",
      "type": "function"
    },
    {
      "inputs": [],
      "name": "owner",
      "outputs": [
        {
          "internalType": "address",
          "name": "",
          "type": "address"
        }
      ],
      "stateMutability": "view",
      "type": "function"
    },
    {
      "inputs": [],
      "name": "renounceOwnership",
      "outputs": [],
      "stateMutability": "nonpayable",
      "type": "function"
    },
    {
      "inputs": [
        {
          "internalType": "uint256",
          "name": "_handId",
          "type": "uint256"
        }
      ],
      "name": "settleDraw",
      "outputs": [],
      "stateMutability": "nonpayable",
      "type": "function"
    },
    {
      "inputs": [
        {
          "internalType": "address",
          "name": "newOwner",
          "type": "address"
        }
      ],
      "name": "transferOwnership",
      "outputs": [],
      "stateMutability": "nonpayable",
      "type": "function"
    },
    {
      "inputs": [
        {
          "internalType": "uint256",
          "name": "_newRake",
          "type": "uint256"
        }
      ],
      "name": "updateMaxRake",
      "outputs": [],
      "stateMutability": "nonpayable",
      "type": "function"
    }
  ],
  "bytecode": "0x608060405268056bc75e2d631000006004553480156200001e57600080fd5b5060405162002f3538038062002f358339818101604052810190620000449190620001e2565b6200006462000058620000ac60201b60201c565b620000b460201b60201c565b80600160006101000a81548173ffffffffffffffffffffffffffffffffffffffff021916908373ffffffffffffffffffffffffffffffffffffffff1602179055505062000214565b600033905090565b60008060009054906101000a900473ffffffffffffffffffffffffffffffffffffffff169050816000806101000a81548173ffffffffffffffffffffffffffffffffffffffff021916908373ffffffffffffffffffffffffffffffffffffffff1602179055508173ffffffffffffffffffffffffffffffffffffffff168173ffffffffffffffffffffffffffffffffffffffff167f8be0079c531659141344cd1fd0a4f28419497f9722a3daafe3b4186f6b6457e060405160405180910390a35050565b600080fd5b600073ffffffffffffffffffffffffffffffffffffffff82169050919050565b6000620001aa826200017d565b9050919050565b620001bc816200019d565b8114620001c857600080fd5b50565b600081519050620001dc81620001b1565b92915050565b600060208284031215620001fb57620001fa62000178565b5b60006200020b84828501620001cb565b91505092915050565b612d1180620002246000396000f3fe608060405234801561001057600080fd5b50600436106100f55760003560e01c80638385521b11610097578063d47f269e11610066578063d47f269e1461023d578063df898e321461026d578063eccca5ae14610289578063f2fde38b146102a5576100f5565b80638385521b146101ae5780638da5cb5b146101cc5780638e6afff9146101ea578063c00cfc271461021f576100f5565b80636795b1be116100d35780636795b1be1461014e5780636c639e751461016a578063715018a614610188578063795a6ce914610192576100f5565b80633c82ddd9146100fa57806343fea3991461011657806364cdbb7614610132575b600080fd5b610114600480360381019061010f9190611ecf565b6102c1565b005b610130600480360381019061012b9190611f5a565b6105b7565b005b61014c60048036038101906101479190611ecf565b610ab8565b005b61016860048036038101906101639190611ecf565b610aca565b005b610172610eb7565b60405161017f9190611ff9565b60405180910390f35b610190610edd565b005b6101ac60048036038101906101a79190611ecf565b610ef1565b005b6101b6611238565b6040516101c39190612023565b60405180910390f35b6101d461123e565b6040516101e1919061204d565b60405180910390f35b61020460048036038101906101ff9190611ecf565b611267565b60405161021696959493929190612083565b60405180910390f35b610227611310565b6040516102349190612023565b60405180910390f35b61025760048036038101906102529190611ecf565b611316565b604051610264919061218c565b60405180910390f35b610287600480360381019061028291906121a7565b611474565b005b6102a3600480360381019061029e9190611f5a565b6118f3565b005b6102bf60048036038101906102ba91906121e7565b611c4d565b005b6002600082815260200190815260200160002060040160009054906101000a900460ff16610324576040517f08c379a000000000000000000000000000000000000000000000000000000000815260040161031b90612271565b60405180910390fd5b6002600082815260200190815260200160002060000160009054906101000a900473ffffffffffffffffffffffffffffffffffffffff1673ffffffffffffffffffffffffffffffffffffffff163373ffffffffffffffffffffffffffffffffffffffff16146103c8576040517f08c379a00000000000000000000000000000000000000000000000000000000081526004016103bf90612303565b60405180910390fd5b6000600260008381526020019081526020016000206003015414610421576040517f08c379a000000000000000000000000000000000000000000000000000000000815260040161041890612395565b60405180910390fd5b600160009054906101000a900473ffffffffffffffffffffffffffffffffffffffff1673ffffffffffffffffffffffffffffffffffffffff1663a9059cbb6002600084815260200190815260200160002060000160009054906101000a900473ffffffffffffffffffffffffffffffffffffffff1660026000858152602001908152602001600020600201546040518363ffffffff1660e01b81526004016104ca9291906123b5565b6020604051808303816000875af11580156104e9573d6000803e3d6000fd5b505050506040513d601f19601f8201168201806040525081019061050d919061240a565b61054c576040517f08c379a000000000000000000000000000000000000000000000000000000000815260040161054390612483565b60405180910390fd5b60006002600083815260200190815260200160002060040160006101000a81548160ff0219169083151502179055507ff191618b7e2e1bd472779b0934d4662f2fc0cca61b2b10791c052cf4690d467581336040516105ac9291906124a3565b60405180910390a150565b6000600454836105c791906124fb565b905060045483101561060e576040517f08c379a0000000000000000000000000000000000000000000000000000000008152600401610605906125a1565b60405180910390fd5b82600160009054906101000a900473ffffffffffffffffffffffffffffffffffffffff1673ffffffffffffffffffffffffffffffffffffffff1663dd62ed3e33306040518363ffffffff1660e01b815260040161066c9291906125c1565b602060405180830381865afa158015610689573d6000803e3d6000fd5b505050506040513d601f19601f820116820180604052508101906106ad91906125ff565b10156106ee576040517f08c379a00000000000000000000000000000000000000000000000000000000081526004016106e590612678565b60405180910390fd5b600160009054906101000a900473ffffffffffffffffffffffffffffffffffffffff1673ffffffffffffffffffffffffffffffffffffffff166323b872dd3361073561123e565b6004546040518463ffffffff1660e01b815260040161075693929190612698565b6020604051808303816000875af1158015610775573d6000803e3d6000fd5b505050506040513d601f19601f82011682018060405250810190610799919061240a565b6107d8576040517f08c379a00000000000000000000000000000000000000000000000000000000081526004016107cf9061271b565b60405180910390fd5b60008111156108c357600160009054906101000a900473ffffffffffffffffffffffffffffffffffffffff1673ffffffffffffffffffffffffffffffffffffffff166323b872dd3330846040518463ffffffff1660e01b815260040161084093929190612698565b6020604051808303816000875af115801561085f573d6000803e3d6000fd5b505050506040513d601f19601f82011682018060405250810190610883919061240a565b6108c2576040517f08c379a00000000000000000000000000000000000000000000000000000000081526004016108b99061271b565b60405180910390fd5b5b60006040518060c001604052803373ffffffffffffffffffffffffffffffffffffffff1681526020018473ffffffffffffffffffffffffffffffffffffffff16815260200183815260200160008152602001600115158152602001600073ffffffffffffffffffffffffffffffffffffffff1681525090508060026000600354815260200190815260200160002060008201518160000160006101000a81548173ffffffffffffffffffffffffffffffffffffffff021916908373ffffffffffffffffffffffffffffffffffffffff16021790555060208201518160010160006101000a81548173ffffffffffffffffffffffffffffffffffffffff021916908373ffffffffffffffffffffffffffffffffffffffff160217905550604082015181600201556060820151816003015560808201518160040160006101000a81548160ff02191690831515021790555060a08201518160040160016101000a81548173ffffffffffffffffffffffffffffffffffffffff021916908373ffffffffffffffffffffffffffffffffffffffff1602179055509050507f7c929d97670e425f1571bd2a541b6578c87642f04a194e19acc4630f051874296003543384604051610a929392919061273b565b60405180910390a160036000815480929190610aad90612772565b919050555050505050565b610ac0611cd0565b8060048190555050565b610ad2611cd0565b6002600082815260200190815260200160002060040160009054906101000a900460ff16610b35576040517f08c379a0000000000000000000000000000000000000000000000000000000008152600401610b2c90612271565b60405180910390fd5b600073ffffffffffffffffffffffffffffffffffffffff166002600083815260200190815260200160002060010160009054906101000a900473ffffffffffffffffffffffffffffffffffffffff1673ffffffffffffffffffffffffffffffffffffffff1603610bda576040517f08c379a0000000000000000000000000000000000000000000000000000000008152600401610bd19061282c565b60405180910390fd5b60006002806000848152602001908152602001600020600301546002600085815260200190815260200160002060020154610c15919061284c565b610c1f91906128af565b9050600160009054906101000a900473ffffffffffffffffffffffffffffffffffffffff1673ffffffffffffffffffffffffffffffffffffffff1663a9059cbb6002600085815260200190815260200160002060000160009054906101000a900473ffffffffffffffffffffffffffffffffffffffff16836040518363ffffffff1660e01b8152600401610cb49291906123b5565b6020604051808303816000875af1158015610cd3573d6000803e3d6000fd5b505050506040513d601f19601f82011682018060405250810190610cf7919061240a565b610d36576040517f08c379a0000000000000000000000000000000000000000000000000000000008152600401610d2d9061292c565b60405180910390fd5b600160009054906101000a900473ffffffffffffffffffffffffffffffffffffffff1673ffffffffffffffffffffffffffffffffffffffff1663a9059cbb6002600085815260200190815260200160002060010160009054906101000a900473ffffffffffffffffffffffffffffffffffffffff16836040518363ffffffff1660e01b8152600401610dc99291906123b5565b6020604051808303816000875af1158015610de8573d6000803e3d6000fd5b505050506040513d601f19601f82011682018060405250810190610e0c919061240a565b610e4b576040517f08c379a0000000000000000000000000000000000000000000000000000000008152600401610e4290612998565b60405180910390fd5b60006002600084815260200190815260200160002060040160006101000a81548160ff0219169083151502179055507fe2a279e8f90f055e9cdea2734ae41aeb4318ab47504125c3e49e565fc1ffe6dd8282604051610eab9291906129b8565b60405180910390a15050565b600160009054906101000a900473ffffffffffffffffffffffffffffffffffffffff1681565b610ee5611cd0565b610eef6000611d4e565b565b6000600260008381526020019081526020016000206002015490506002600083815260200190815260200160002060040160009054906101000a900460ff16610f6f576040517f08c379a0000000000000000000000000000000000000000000000000000000008152600401610f6690612271565b60405180910390fd5b3373ffffffffffffffffffffffffffffffffffffffff166002600084815260200190815260200160002060010160009054906101000a900473ffffffffffffffffffffffffffffffffffffffff1673ffffffffffffffffffffffffffffffffffffffff1614611013576040517f08c379a000000000000000000000000000000000000000000000000000000000815260040161100a90612a53565b60405180910390fd5b60008111156111f95780600160009054906101000a900473ffffffffffffffffffffffffffffffffffffffff1673ffffffffffffffffffffffffffffffffffffffff1663dd62ed3e33306040518363ffffffff1660e01b815260040161107a9291906125c1565b602060405180830381865afa158015611097573d6000803e3d6000fd5b505050506040513d601f19601f820116820180604052508101906110bb91906125ff565b10156110fc576040517f08c379a00000000000000000000000000000000000000000000000000000000081526004016110f390612678565b60405180910390fd5b600160009054906101000a900473ffffffffffffffffffffffffffffffffffffffff1673ffffffffffffffffffffffffffffffffffffffff166323b872dd3330846040518463ffffffff1660e01b815260040161115b93929190612698565b6020604051808303816000875af115801561117a573d6000803e3d6000fd5b505050506040513d601f19601f8201168201806040525081019061119e919061240a565b6111dd576040517f08c379a00000000000000000000000000000000000000000000000000000000081526004016111d49061271b565b60405180910390fd5b8060026000848152602001908152602001600020600301819055505b7f4574f1c229cb1ba83f04ccaa1e7fa9bccb00bf5e0889132f149e0e7a4211069482338360405161122c9392919061273b565b60405180910390a15050565b60035481565b60008060009054906101000a900473ffffffffffffffffffffffffffffffffffffffff16905090565b60026020528060005260406000206000915090508060000160009054906101000a900473ffffffffffffffffffffffffffffffffffffffff16908060010160009054906101000a900473ffffffffffffffffffffffffffffffffffffffff16908060020154908060030154908060040160009054906101000a900460ff16908060040160019054906101000a900473ffffffffffffffffffffffffffffffffffffffff16905086565b60045481565b61131e611e1a565b600260008381526020019081526020016000206040518060c00160405290816000820160009054906101000a900473ffffffffffffffffffffffffffffffffffffffff1673ffffffffffffffffffffffffffffffffffffffff1673ffffffffffffffffffffffffffffffffffffffff1681526020016001820160009054906101000a900473ffffffffffffffffffffffffffffffffffffffff1673ffffffffffffffffffffffffffffffffffffffff1673ffffffffffffffffffffffffffffffffffffffff16815260200160028201548152602001600382015481526020016004820160009054906101000a900460ff161515151581526020016004820160019054906101000a900473ffffffffffffffffffffffffffffffffffffffff1673ffffffffffffffffffffffffffffffffffffffff1673ffffffffffffffffffffffffffffffffffffffff16815250509050919050565b600081116114b7576040517f08c379a00000000000000000000000000000000000000000000000000000000081526004016114ae90612ae5565b60405180910390fd5b6002600083815260200190815260200160002060040160009054906101000a900460ff1661151a576040517f08c379a000000000000000000000000000000000000000000000000000000000815260040161151190612271565b60405180910390fd5b6002600083815260200190815260200160002060000160009054906101000a900473ffffffffffffffffffffffffffffffffffffffff1673ffffffffffffffffffffffffffffffffffffffff163373ffffffffffffffffffffffffffffffffffffffff1614806115eb57506002600083815260200190815260200160002060010160009054906101000a900473ffffffffffffffffffffffffffffffffffffffff1673ffffffffffffffffffffffffffffffffffffffff163373ffffffffffffffffffffffffffffffffffffffff16145b61162a576040517f08c379a000000000000000000000000000000000000000000000000000000000815260040161162190612b51565b60405180910390fd5b80600160009054906101000a900473ffffffffffffffffffffffffffffffffffffffff1673ffffffffffffffffffffffffffffffffffffffff1663dd62ed3e33306040518363ffffffff1660e01b81526004016116889291906125c1565b602060405180830381865afa1580156116a5573d6000803e3d6000fd5b505050506040513d601f19601f820116820180604052508101906116c991906125ff565b101561170a576040517f08c379a000000000000000000000000000000000000000000000000000000000815260040161170190612678565b60405180910390fd5b600160009054906101000a900473ffffffffffffffffffffffffffffffffffffffff1673ffffffffffffffffffffffffffffffffffffffff166323b872dd3330846040518463ffffffff1660e01b815260040161176993929190612698565b6020604051808303816000875af1158015611788573d6000803e3d6000fd5b505050506040513d601f19601f820116820180604052508101906117ac919061240a565b6117eb576040517f08c379a00000000000000000000000000000000000000000000000000000000081526004016117e29061271b565b60405180910390fd5b6002600083815260200190815260200160002060000160009054906101000a900473ffffffffffffffffffffffffffffffffffffffff1673ffffffffffffffffffffffffffffffffffffffff163373ffffffffffffffffffffffffffffffffffffffff1603611886578060026000848152602001908152602001600020600201600082825461187a919061284c565b925050819055506118b4565b806002600084815260200190815260200160002060030160008282546118ac919061284c565b925050819055505b7f942ce7d81758c4cf68fa7638d68d695ae1c785e10b2413ccca93098d14f4cf7a8233836040516118e79392919061273b565b60405180910390a15050565b6118fb611cd0565b6002600083815260200190815260200160002060040160009054906101000a900460ff1661195e576040517f08c379a000000000000000000000000000000000000000000000000000000000815260040161195590612271565b60405180910390fd5b6002600083815260200190815260200160002060000160009054906101000a900473ffffffffffffffffffffffffffffffffffffffff1673ffffffffffffffffffffffffffffffffffffffff168173ffffffffffffffffffffffffffffffffffffffff161480611a2f57506002600083815260200190815260200160002060010160009054906101000a900473ffffffffffffffffffffffffffffffffffffffff1673ffffffffffffffffffffffffffffffffffffffff168173ffffffffffffffffffffffffffffffffffffffff16145b611a6e576040517f08c379a0000000000000000000000000000000000000000000000000000000008152600401611a6590612bbd565b60405180910390fd5b600060026000848152602001908152602001600020600301546002600085815260200190815260200160002060020154611aa8919061284c565b9050600160009054906101000a900473ffffffffffffffffffffffffffffffffffffffff1673ffffffffffffffffffffffffffffffffffffffff1663a9059cbb83836040518363ffffffff1660e01b8152600401611b079291906123b5565b6020604051808303816000875af1158015611b26573d6000803e3d6000fd5b505050506040513d601f19601f82011682018060405250810190611b4a919061240a565b611b89576040517f08c379a0000000000000000000000000000000000000000000000000000000008152600401611b809061271b565b60405180910390fd5b60006002600085815260200190815260200160002060040160006101000a81548160ff021916908315150217905550816002600085815260200190815260200160002060040160016101000a81548173ffffffffffffffffffffffffffffffffffffffff021916908373ffffffffffffffffffffffffffffffffffffffff1602179055507f49a7089dc57e90ccb268de4938122392a47fddb6e8a38336128c7bc9926ad9db838383604051611c409392919061273b565b60405180910390a1505050565b611c55611cd0565b600073ffffffffffffffffffffffffffffffffffffffff168173ffffffffffffffffffffffffffffffffffffffff1603611cc4576040517f08c379a0000000000000000000000000000000000000000000000000000000008152600401611cbb90612c4f565b60405180910390fd5b611ccd81611d4e565b50565b611cd8611e12565b73ffffffffffffffffffffffffffffffffffffffff16611cf661123e565b73ffffffffffffffffffffffffffffffffffffffff1614611d4c576040517f08c379a0000000000000000000000000000000000000000000000000000000008152600401611d4390612cbb565b60405180910390fd5b565b60008060009054906101000a900473ffffffffffffffffffffffffffffffffffffffff169050816000806101000a81548173ffffffffffffffffffffffffffffffffffffffff021916908373ffffffffffffffffffffffffffffffffffffffff1602179055508173ffffffffffffffffffffffffffffffffffffffff168173ffffffffffffffffffffffffffffffffffffffff167f8be0079c531659141344cd1fd0a4f28419497f9722a3daafe3b4186f6b6457e060405160405180910390a35050565b600033905090565b6040518060c00160405280600073ffffffffffffffffffffffffffffffffffffffff168152602001600073ffffffffffffffffffffffffffffffffffffffff1681526020016000815260200160008152602001600015158152602001600073ffffffffffffffffffffffffffffffffffffffff1681525090565b600080fd5b6000819050919050565b611eac81611e99565b8114611eb757600080fd5b50565b600081359050611ec981611ea3565b92915050565b600060208284031215611ee557611ee4611e94565b5b6000611ef384828501611eba565b91505092915050565b600073ffffffffffffffffffffffffffffffffffffffff82169050919050565b6000611f2782611efc565b9050919050565b611f3781611f1c565b8114611f4257600080fd5b50565b600081359050611f5481611f2e565b92915050565b60008060408385031215611f7157611f70611e94565b5b6000611f7f85828601611eba565b9250506020611f9085828601611f45565b9150509250929050565b6000819050919050565b6000611fbf611fba611fb584611efc565b611f9a565b611efc565b9050919050565b6000611fd182611fa4565b9050919050565b6000611fe382611fc6565b9050919050565b611ff381611fd8565b82525050565b600060208201905061200e6000830184611fea565b92915050565b61201d81611e99565b82525050565b60006020820190506120386000830184612014565b92915050565b61204781611f1c565b82525050565b6000602082019050612062600083018461203e565b92915050565b60008115159050919050565b61207d81612068565b82525050565b600060c082019050612098600083018961203e565b6120a5602083018861203e565b6120b26040830187612014565b6120bf6060830186612014565b6120cc6080830185612074565b6120d960a083018461203e565b979650505050505050565b6120ed81611f1c565b82525050565b6120fc81611e99565b82525050565b61210b81612068565b82525050565b60c08201600082015161212760008501826120e4565b50602082015161213a60208501826120e4565b50604082015161214d60408501826120f3565b50606082015161216060608501826120f3565b5060808201516121736080850182612102565b5060a082015161218660a08501826120e4565b50505050565b600060c0820190506121a16000830184612111565b92915050565b600080604083850312156121be576121bd611e94565b5b60006121cc85828601611eba565b92505060206121dd85828601611eba565b9150509250929050565b6000602082840312156121fd576121fc611e94565b5b600061220b84828501611f45565b91505092915050565b600082825260208201905092915050565b7f48616e64206973206e6f74206163746976650000000000000000000000000000600082015250565b600061225b601283612214565b915061226682612225565b602082019050919050565b6000602082019050818103600083015261228a8161224e565b9050919050565b7f4f6e6c79207468652062696720626c696e642063616e2063616e63656c20746860008201527f652068616e640000000000000000000000000000000000000000000000000000602082015250565b60006122ed602683612214565b91506122f882612291565b604082019050919050565b6000602082019050818103600083015261231c816122e0565b9050919050565b7f43616e6e6f742063616e63656c20616674657220616e20736d616c6c426c696e60008201527f6420686173206a6f696e65640000000000000000000000000000000000000000602082015250565b600061237f602c83612214565b915061238a82612323565b604082019050919050565b600060208201905081810360008301526123ae81612372565b9050919050565b60006040820190506123ca600083018561203e565b6123d76020830184612014565b9392505050565b6123e781612068565b81146123f257600080fd5b50565b600081519050612404816123de565b92915050565b6000602082840312156124205761241f611e94565b5b600061242e848285016123f5565b91505092915050565b7f526566756e64206661696c656400000000000000000000000000000000000000600082015250565b600061246d600d83612214565b915061247882612437565b602082019050919050565b6000602082019050818103600083015261249c81612460565b9050919050565b60006040820190506124b86000830185612014565b6124c5602083018461203e565b9392505050565b7f4e487b7100000000000000000000000000000000000000000000000000000000600052601160045260246000fd5b600061250682611e99565b915061251183611e99565b9250828203905081811115612529576125286124cc565b5b92915050565b7f42657420616d6f756e74206d7573742062652067726561746572207468616e2060008201527f7468652072616b65000000000000000000000000000000000000000000000000602082015250565b600061258b602883612214565b91506125968261252f565b604082019050919050565b600060208201905081810360008301526125ba8161257e565b9050919050565b60006040820190506125d6600083018561203e565b6125e3602083018461203e565b9392505050565b6000815190506125f981611ea3565b92915050565b60006020828403121561261557612614611e94565b5b6000612623848285016125ea565b91505092915050565b7f496e73756666696369656e7420616c6c6f77616e636500000000000000000000600082015250565b6000612662601683612214565b915061266d8261262c565b602082019050919050565b6000602082019050818103600083015261269181612655565b9050919050565b60006060820190506126ad600083018661203e565b6126ba602083018561203e565b6126c76040830184612014565b949350505050565b7f5472616e73666572206661696c65640000000000000000000000000000000000600082015250565b6000612705600f83612214565b9150612710826126cf565b602082019050919050565b60006020820190508181036000830152612734816126f8565b9050919050565b60006060820190506127506000830186612014565b61275d602083018561203e565b61276a6040830184612014565b949350505050565b600061277d82611e99565b91507fffffffffffffffffffffffffffffffffffffffffffffffffffffffffffffffff82036127af576127ae6124cc565b5b600182019050919050565b7f4120647261772063616e206f6e6c7920626520736574746c656420696620626f60008201527f746820706c61796572732068617665206a6f696e656400000000000000000000602082015250565b6000612816603683612214565b9150612821826127ba565b604082019050919050565b6000602082019050818103600083015261284581612809565b9050919050565b600061285782611e99565b915061286283611e99565b925082820190508082111561287a576128796124cc565b5b92915050565b7f4e487b7100000000000000000000000000000000000000000000000000000000600052601260045260246000fd5b60006128ba82611e99565b91506128c583611e99565b9250826128d5576128d4612880565b5b828204905092915050565b7f526566756e6420746f20626967426c696e64206661696c656400000000000000600082015250565b6000612916601983612214565b9150612921826128e0565b602082019050919050565b6000602082019050818103600083015261294581612909565b9050919050565b7f526566756e6420746f20736d616c6c426c696e64206661696c65640000000000600082015250565b6000612982601b83612214565b915061298d8261294c565b602082019050919050565b600060208201905081810360008301526129b181612975565b9050919050565b60006040820190506129cd6000830185612014565b6129da6020830184612014565b9392505050565b7f4f6e6c792074686520736d616c6c426c696e642063616e206a6f696e2074686560008201527f2068616e64000000000000000000000000000000000000000000000000000000602082015250565b6000612a3d602583612214565b9150612a48826129e1565b604082019050919050565b60006020820190508181036000830152612a6c81612a30565b9050919050565b7f42657420616d6f756e74206d7573742062652067726561746572207468616e2060008201527f3000000000000000000000000000000000000000000000000000000000000000602082015250565b6000612acf602183612214565b9150612ada82612a73565b604082019050919050565b60006020820190508181036000830152612afe81612ac2565b9050919050565b7f506c61796572206973206e6f742070617274206f6620746869732068616e6400600082015250565b6000612b3b601f83612214565b9150612b4682612b05565b602082019050919050565b60006020820190508181036000830152612b6a81612b2e565b9050919050565b7f496e76616c69642077696e6e6572000000000000000000000000000000000000600082015250565b6000612ba7600e83612214565b9150612bb282612b71565b602082019050919050565b60006020820190508181036000830152612bd681612b9a565b9050919050565b7f4f776e61626c653a206e6577206f776e657220697320746865207a65726f206160008201527f6464726573730000000000000000000000000000000000000000000000000000602082015250565b6000612c39602683612214565b9150612c4482612bdd565b604082019050919050565b60006020820190508181036000830152612c6881612c2c565b9050919050565b7f4f776e61626c653a2063616c6c6572206973206e6f7420746865206f776e6572600082015250565b6000612ca5602083612214565b9150612cb082612c6f565b602082019050919050565b60006020820190508181036000830152612cd481612c98565b905091905056fea2646970667358221220a06f81b87be3073c7e1c6cd19e7c002c20a24a36b1f5f58b850eccad66c6f7a464736f6c63430008180033",
  "linkReferences": {},
  "deployedLinkReferences": {}
}