{
  "_format": "hh-sol-artifact-1",
  "contractName": "Hodlem",
  "sourceName": "contracts/Hodlem.sol",
  "abi": [
    {
      "inputs": [
        {
          "internalType": "address",
          "name": "_tokenAddress",
          "type": "address"
        },
        {
          "internalType": "address",
          "name": "ownerAddress",
          "type": "address"
        }
      ],
      "stateMutability": "nonpayable",
      "type": "constructor"
    },
    {
      "inputs": [
        {
          "internalType": "address",
          "name": "owner",
          "type": "address"
        }
      ],
      "name": "OwnableInvalidOwner",
      "type": "error"
    },
    {
      "inputs": [
        {
          "internalType": "address",
          "name": "account",
          "type": "address"
        }
      ],
      "name": "OwnableUnauthorizedAccount",
      "type": "error"
    },
    {
      "anonymous": false,
      "inputs": [
        {
          "indexed": false,
          "internalType": "uint256",
          "name": "gameId",
          "type": "uint256"
        },
        {
          "indexed": false,
          "internalType": "address",
          "name": "player",
          "type": "address"
        },
        {
          "indexed": false,
          "internalType": "uint256",
          "name": "betAmount",
          "type": "uint256"
        }
      ],
      "name": "BetMade",
      "type": "event"
    },
    {
      "anonymous": false,
      "inputs": [
        {
          "indexed": false,
          "internalType": "uint256",
          "name": "gameId",
          "type": "uint256"
        },
        {
          "indexed": false,
          "internalType": "uint256",
          "name": "halfPot",
          "type": "uint256"
        }
      ],
      "name": "DrawSettled",
      "type": "event"
    },
    {
      "anonymous": false,
      "inputs": [
        {
          "indexed": false,
          "internalType": "uint256",
          "name": "gameId",
          "type": "uint256"
        },
        {
          "indexed": false,
          "internalType": "address",
          "name": "creator",
          "type": "address"
        }
      ],
      "name": "GameCancelled",
      "type": "event"
    },
    {
      "anonymous": false,
      "inputs": [
        {
          "indexed": false,
          "internalType": "uint256",
          "name": "gameId",
          "type": "uint256"
        },
        {
          "indexed": false,
          "internalType": "address",
          "name": "creator",
          "type": "address"
        },
        {
          "indexed": false,
          "internalType": "uint256",
          "name": "betAmount",
          "type": "uint256"
        }
      ],
      "name": "GameCreated",
      "type": "event"
    },
    {
      "anonymous": false,
      "inputs": [
        {
          "indexed": false,
          "internalType": "uint256",
          "name": "gameId",
          "type": "uint256"
        },
        {
          "indexed": false,
          "internalType": "address",
          "name": "winner",
          "type": "address"
        },
        {
          "indexed": false,
          "internalType": "uint256",
          "name": "totalPot",
          "type": "uint256"
        }
      ],
      "name": "GameEnded",
      "type": "event"
    },
    {
      "anonymous": false,
      "inputs": [
        {
          "indexed": false,
          "internalType": "uint256",
          "name": "gameId",
          "type": "uint256"
        },
        {
          "indexed": false,
          "internalType": "address",
          "name": "opponent",
          "type": "address"
        },
        {
          "indexed": false,
          "internalType": "uint256",
          "name": "betAmount",
          "type": "uint256"
        }
      ],
      "name": "GameJoined",
      "type": "event"
    },
    {
      "anonymous": false,
      "inputs": [
        {
          "indexed": true,
          "internalType": "address",
          "name": "previousOwner",
          "type": "address"
        },
        {
          "indexed": true,
          "internalType": "address",
          "name": "newOwner",
          "type": "address"
        }
      ],
      "name": "OwnershipTransferred",
      "type": "event"
    },
    {
      "anonymous": false,
      "inputs": [
        {
          "indexed": false,
          "internalType": "uint256",
          "name": "amount",
          "type": "uint256"
        },
        {
          "indexed": false,
          "internalType": "address",
          "name": "by",
          "type": "address"
        }
      ],
      "name": "TokensWithdrawn",
      "type": "event"
    },
    {
      "inputs": [
        {
          "internalType": "uint256",
          "name": "_gameId",
          "type": "uint256"
        }
      ],
      "name": "cancelGame",
      "outputs": [],
      "stateMutability": "nonpayable",
      "type": "function"
    },
    {
      "inputs": [
        {
          "internalType": "uint256",
          "name": "_buyIn",
          "type": "uint256"
        }
      ],
      "name": "createGame",
      "outputs": [],
      "stateMutability": "nonpayable",
      "type": "function"
    },
    {
      "inputs": [
        {
          "internalType": "uint256",
          "name": "_gameId",
          "type": "uint256"
        },
        {
          "internalType": "address",
          "name": "_winner",
          "type": "address"
        }
      ],
      "name": "endGame",
      "outputs": [],
      "stateMutability": "nonpayable",
      "type": "function"
    },
    {
      "inputs": [],
      "name": "gameId",
      "outputs": [
        {
          "internalType": "uint256",
          "name": "",
          "type": "uint256"
        }
      ],
      "stateMutability": "view",
      "type": "function"
    },
    {
      "inputs": [
        {
          "internalType": "uint256",
          "name": "",
          "type": "uint256"
        }
      ],
      "name": "games",
      "outputs": [
        {
          "internalType": "address",
          "name": "creator",
          "type": "address"
        },
        {
          "internalType": "address",
          "name": "opponent",
          "type": "address"
        },
        {
          "internalType": "uint256",
          "name": "creatorBet",
          "type": "uint256"
        },
        {
          "internalType": "uint256",
          "name": "opponentBet",
          "type": "uint256"
        },
        {
          "internalType": "bool",
          "name": "isActive",
          "type": "bool"
        },
        {
          "internalType": "address",
          "name": "winner",
          "type": "address"
        }
      ],
      "stateMutability": "view",
      "type": "function"
    },
    {
      "inputs": [
        {
          "internalType": "uint256",
          "name": "_gameId",
          "type": "uint256"
        }
      ],
      "name": "getGame",
      "outputs": [
        {
          "components": [
            {
              "internalType": "address",
              "name": "creator",
              "type": "address"
            },
            {
              "internalType": "address",
              "name": "opponent",
              "type": "address"
            },
            {
              "internalType": "uint256",
              "name": "creatorBet",
              "type": "uint256"
            },
            {
              "internalType": "uint256",
              "name": "opponentBet",
              "type": "uint256"
            },
            {
              "internalType": "bool",
              "name": "isActive",
              "type": "bool"
            },
            {
              "internalType": "address",
              "name": "winner",
              "type": "address"
            }
          ],
          "internalType": "struct Hodlem.Game",
          "name": "",
          "type": "tuple"
        }
      ],
      "stateMutability": "view",
      "type": "function"
    },
    {
      "inputs": [
        {
          "internalType": "uint256",
          "name": "_gameId",
          "type": "uint256"
        },
        {
          "internalType": "uint256",
          "name": "_betAmount",
          "type": "uint256"
        }
      ],
      "name": "joinGame",
      "outputs": [],
      "stateMutability": "nonpayable",
      "type": "function"
    },
    {
      "inputs": [
        {
          "internalType": "uint256",
          "name": "_gameId",
          "type": "uint256"
        },
        {
          "internalType": "address",
          "name": "_player",
          "type": "address"
        },
        {
          "internalType": "uint256",
          "name": "_betAmount",
          "type": "uint256"
        }
      ],
      "name": "makeBet",
      "outputs": [],
      "stateMutability": "nonpayable",
      "type": "function"
    },
    {
      "inputs": [],
      "name": "owner",
      "outputs": [
        {
          "internalType": "address",
          "name": "",
          "type": "address"
        }
      ],
      "stateMutability": "view",
      "type": "function"
    },
    {
      "inputs": [],
      "name": "renounceOwnership",
      "outputs": [],
      "stateMutability": "nonpayable",
      "type": "function"
    },
    {
      "inputs": [
        {
          "internalType": "uint256",
          "name": "_gameId",
          "type": "uint256"
        }
      ],
      "name": "settleDraw",
      "outputs": [],
      "stateMutability": "nonpayable",
      "type": "function"
    },
    {
      "inputs": [],
      "name": "token",
      "outputs": [
        {
          "internalType": "contract IERC20",
          "name": "",
          "type": "address"
        }
      ],
      "stateMutability": "view",
      "type": "function"
    },
    {
      "inputs": [
        {
          "internalType": "address",
          "name": "newOwner",
          "type": "address"
        }
      ],
      "name": "transferOwnership",
      "outputs": [],
      "stateMutability": "nonpayable",
      "type": "function"
    },
    {
      "inputs": [
        {
          "internalType": "uint256",
          "name": "_amount",
          "type": "uint256"
        }
      ],
      "name": "withdrawTokens",
      "outputs": [],
      "stateMutability": "nonpayable",
      "type": "function"
    }
  ],
  "bytecode": "0x60806040523480156200001157600080fd5b5060405162002fae38038062002fae833981810160405281019062000037919062000236565b80600073ffffffffffffffffffffffffffffffffffffffff168173ffffffffffffffffffffffffffffffffffffffff1603620000ad5760006040517f1e4fbdf7000000000000000000000000000000000000000000000000000000008152600401620000a491906200028e565b60405180910390fd5b620000be816200010860201b60201c565b5081600160006101000a81548173ffffffffffffffffffffffffffffffffffffffff021916908373ffffffffffffffffffffffffffffffffffffffff1602179055505050620002ab565b60008060009054906101000a900473ffffffffffffffffffffffffffffffffffffffff169050816000806101000a81548173ffffffffffffffffffffffffffffffffffffffff021916908373ffffffffffffffffffffffffffffffffffffffff1602179055508173ffffffffffffffffffffffffffffffffffffffff168173ffffffffffffffffffffffffffffffffffffffff167f8be0079c531659141344cd1fd0a4f28419497f9722a3daafe3b4186f6b6457e060405160405180910390a35050565b600080fd5b600073ffffffffffffffffffffffffffffffffffffffff82169050919050565b6000620001fe82620001d1565b9050919050565b6200021081620001f1565b81146200021c57600080fd5b50565b600081519050620002308162000205565b92915050565b6000806040838503121562000250576200024f620001cc565b5b600062000260858286016200021f565b925050602062000273858286016200021f565b9150509250929050565b6200028881620001f1565b82525050565b6000602082019050620002a560008301846200027d565b92915050565b612cf380620002bb6000396000f3fe608060405234801561001057600080fd5b50600436106100ea5760003560e01c8063865141311161008c578063b60b9fcb11610066578063b60b9fcb14610224578063d7c81b5514610240578063f2fde38b1461025e578063fc0c546a1461027a576100ea565b806386514131146101ba5780638da5cb5b146101d6578063a2f77bcc146101f4576100ea565b806349da0d0f116100c857806349da0d0f1461015c5780636795b1be1461017857806369958ab914610194578063715018a6146101b0576100ea565b8063117a5b90146100ef578063315a095d1461012457806348e837b914610140575b600080fd5b61010960048036038101906101049190611fdc565b610298565b60405161011b96959493929190612074565b60405180910390f35b61013e60048036038101906101399190611fdc565b610341565b005b61015a60048036038101906101559190611fdc565b610542565b005b61017660048036038101906101719190612101565b6108f1565b005b610192600480360381019061018d9190611fdc565b610d2e565b005b6101ae60048036038101906101a99190611fdc565b61111b565b005b6101b861145d565b005b6101d460048036038101906101cf9190612154565b611471565b005b6101de6117cb565b6040516101eb9190612194565b60405180910390f35b61020e60048036038101906102099190611fdc565b6117f4565b60405161021b9190612257565b60405180910390f35b61023e60048036038101906102399190612272565b611952565b005b610248611d22565b60405161025591906122b2565b60405180910390f35b610278600480360381019061027391906122cd565b611d28565b005b610282611dae565b60405161028f9190612359565b60405180910390f35b60026020528060005260406000206000915090508060000160009054906101000a900473ffffffffffffffffffffffffffffffffffffffff16908060010160009054906101000a900473ffffffffffffffffffffffffffffffffffffffff16908060020154908060030154908060040160009054906101000a900460ff16908060040160019054906101000a900473ffffffffffffffffffffffffffffffffffffffff16905086565b610349611dd4565b80600160009054906101000a900473ffffffffffffffffffffffffffffffffffffffff1673ffffffffffffffffffffffffffffffffffffffff166370a08231306040518263ffffffff1660e01b81526004016103a59190612194565b602060405180830381865afa1580156103c2573d6000803e3d6000fd5b505050506040513d601f19601f820116820180604052508101906103e69190612389565b1015610427576040517f08c379a000000000000000000000000000000000000000000000000000000000815260040161041e90612413565b60405180910390fd5b600160009054906101000a900473ffffffffffffffffffffffffffffffffffffffff1673ffffffffffffffffffffffffffffffffffffffff1663a9059cbb33836040518363ffffffff1660e01b8152600401610484929190612433565b6020604051808303816000875af11580156104a3573d6000803e3d6000fd5b505050506040513d601f19601f820116820180604052508101906104c79190612488565b610506576040517f08c379a00000000000000000000000000000000000000000000000000000000081526004016104fd90612501565b60405180910390fd5b7f0ddddc48b57dd67f8fa2ff05c78034b578c31ef5caa05b03d2ca16feadbbb98f8133604051610537929190612521565b60405180910390a150565b80600160009054906101000a900473ffffffffffffffffffffffffffffffffffffffff1673ffffffffffffffffffffffffffffffffffffffff1663dd62ed3e33306040518363ffffffff1660e01b81526004016105a092919061254a565b602060405180830381865afa1580156105bd573d6000803e3d6000fd5b505050506040513d601f19601f820116820180604052508101906105e19190612389565b1015610622576040517f08c379a0000000000000000000000000000000000000000000000000000000008152600401610619906125bf565b60405180910390fd5b600160009054906101000a900473ffffffffffffffffffffffffffffffffffffffff1673ffffffffffffffffffffffffffffffffffffffff166323b872dd3330846040518463ffffffff1660e01b8152600401610681939291906125df565b6020604051808303816000875af11580156106a0573d6000803e3d6000fd5b505050506040513d601f19601f820116820180604052508101906106c49190612488565b610703576040517f08c379a00000000000000000000000000000000000000000000000000000000081526004016106fa90612501565b60405180910390fd5b6040518060c001604052803373ffffffffffffffffffffffffffffffffffffffff168152602001600073ffffffffffffffffffffffffffffffffffffffff16815260200182815260200160008152602001600115158152602001600073ffffffffffffffffffffffffffffffffffffffff1681525060026000600354815260200190815260200160002060008201518160000160006101000a81548173ffffffffffffffffffffffffffffffffffffffff021916908373ffffffffffffffffffffffffffffffffffffffff16021790555060208201518160010160006101000a81548173ffffffffffffffffffffffffffffffffffffffff021916908373ffffffffffffffffffffffffffffffffffffffff160217905550604082015181600201556060820151816003015560808201518160040160006101000a81548160ff02191690831515021790555060a08201518160040160016101000a81548173ffffffffffffffffffffffffffffffffffffffff021916908373ffffffffffffffffffffffffffffffffffffffff1602179055509050507f7dfb67e9ff596fca4da65c7eedb128cd1aac553af54b3c0cb733625a2480d8bd60035433836040516108ce93929190612616565b60405180910390a1600360008154809291906108e99061267c565b919050555050565b6002600084815260200190815260200160002060040160009054906101000a900460ff16610954576040517f08c379a000000000000000000000000000000000000000000000000000000000815260040161094b90612710565b60405180910390fd5b6002600084815260200190815260200160002060000160009054906101000a900473ffffffffffffffffffffffffffffffffffffffff1673ffffffffffffffffffffffffffffffffffffffff168273ffffffffffffffffffffffffffffffffffffffff161480610a2557506002600084815260200190815260200160002060010160009054906101000a900473ffffffffffffffffffffffffffffffffffffffff1673ffffffffffffffffffffffffffffffffffffffff168273ffffffffffffffffffffffffffffffffffffffff16145b610a64576040517f08c379a0000000000000000000000000000000000000000000000000000000008152600401610a5b9061277c565b60405180910390fd5b80600160009054906101000a900473ffffffffffffffffffffffffffffffffffffffff1673ffffffffffffffffffffffffffffffffffffffff1663dd62ed3e84306040518363ffffffff1660e01b8152600401610ac292919061254a565b602060405180830381865afa158015610adf573d6000803e3d6000fd5b505050506040513d601f19601f82011682018060405250810190610b039190612389565b1015610b44576040517f08c379a0000000000000000000000000000000000000000000000000000000008152600401610b3b906125bf565b60405180910390fd5b600160009054906101000a900473ffffffffffffffffffffffffffffffffffffffff1673ffffffffffffffffffffffffffffffffffffffff166323b872dd8330846040518463ffffffff1660e01b8152600401610ba3939291906125df565b6020604051808303816000875af1158015610bc2573d6000803e3d6000fd5b505050506040513d601f19601f82011682018060405250810190610be69190612488565b610c25576040517f08c379a0000000000000000000000000000000000000000000000000000000008152600401610c1c90612501565b60405180910390fd5b6002600084815260200190815260200160002060000160009054906101000a900473ffffffffffffffffffffffffffffffffffffffff1673ffffffffffffffffffffffffffffffffffffffff168273ffffffffffffffffffffffffffffffffffffffff1603610cc05780600260008581526020019081526020016000206002016000828254610cb4919061279c565b92505081905550610cee565b80600260008581526020019081526020016000206003016000828254610ce6919061279c565b925050819055505b7f942ce7d81758c4cf68fa7638d68d695ae1c785e10b2413ccca93098d14f4cf7a838383604051610d2193929190612616565b60405180910390a1505050565b610d36611dd4565b6002600082815260200190815260200160002060040160009054906101000a900460ff16610d99576040517f08c379a0000000000000000000000000000000000000000000000000000000008152600401610d9090612710565b60405180910390fd5b600073ffffffffffffffffffffffffffffffffffffffff166002600083815260200190815260200160002060010160009054906101000a900473ffffffffffffffffffffffffffffffffffffffff1673ffffffffffffffffffffffffffffffffffffffff1603610e3e576040517f08c379a0000000000000000000000000000000000000000000000000000000008152600401610e3590612842565b60405180910390fd5b60006002806000848152602001908152602001600020600301546002600085815260200190815260200160002060020154610e79919061279c565b610e839190612891565b9050600160009054906101000a900473ffffffffffffffffffffffffffffffffffffffff1673ffffffffffffffffffffffffffffffffffffffff1663a9059cbb6002600085815260200190815260200160002060000160009054906101000a900473ffffffffffffffffffffffffffffffffffffffff16836040518363ffffffff1660e01b8152600401610f18929190612433565b6020604051808303816000875af1158015610f37573d6000803e3d6000fd5b505050506040513d601f19601f82011682018060405250810190610f5b9190612488565b610f9a576040517f08c379a0000000000000000000000000000000000000000000000000000000008152600401610f919061290e565b60405180910390fd5b600160009054906101000a900473ffffffffffffffffffffffffffffffffffffffff1673ffffffffffffffffffffffffffffffffffffffff1663a9059cbb6002600085815260200190815260200160002060010160009054906101000a900473ffffffffffffffffffffffffffffffffffffffff16836040518363ffffffff1660e01b815260040161102d929190612433565b6020604051808303816000875af115801561104c573d6000803e3d6000fd5b505050506040513d601f19601f820116820180604052508101906110709190612488565b6110af576040517f08c379a00000000000000000000000000000000000000000000000000000000081526004016110a69061297a565b60405180910390fd5b60006002600084815260200190815260200160002060040160006101000a81548160ff0219169083151502179055507fe2a279e8f90f055e9cdea2734ae41aeb4318ab47504125c3e49e565fc1ffe6dd828260405161110f92919061299a565b60405180910390a15050565b6002600082815260200190815260200160002060040160009054906101000a900460ff1661117e576040517f08c379a000000000000000000000000000000000000000000000000000000000815260040161117590612710565b60405180910390fd5b6002600082815260200190815260200160002060000160009054906101000a900473ffffffffffffffffffffffffffffffffffffffff1673ffffffffffffffffffffffffffffffffffffffff163373ffffffffffffffffffffffffffffffffffffffff1614611222576040517f08c379a000000000000000000000000000000000000000000000000000000000815260040161121990612a35565b60405180910390fd5b600073ffffffffffffffffffffffffffffffffffffffff166002600083815260200190815260200160002060010160009054906101000a900473ffffffffffffffffffffffffffffffffffffffff1673ffffffffffffffffffffffffffffffffffffffff16146112c7576040517f08c379a00000000000000000000000000000000000000000000000000000000081526004016112be90612ac7565b60405180910390fd5b600160009054906101000a900473ffffffffffffffffffffffffffffffffffffffff1673ffffffffffffffffffffffffffffffffffffffff1663a9059cbb6002600084815260200190815260200160002060000160009054906101000a900473ffffffffffffffffffffffffffffffffffffffff1660026000858152602001908152602001600020600201546040518363ffffffff1660e01b8152600401611370929190612433565b6020604051808303816000875af115801561138f573d6000803e3d6000fd5b505050506040513d601f19601f820116820180604052508101906113b39190612488565b6113f2576040517f08c379a00000000000000000000000000000000000000000000000000000000081526004016113e990612b33565b60405180910390fd5b60006002600083815260200190815260200160002060040160006101000a81548160ff0219169083151502179055507f58f64e02b3a6d2a3bd28b7700a0a0d6699545bcb55bf917ac0ff670f3a509efb8133604051611452929190612521565b60405180910390a150565b611465611dd4565b61146f6000611e5b565b565b611479611dd4565b6002600083815260200190815260200160002060040160009054906101000a900460ff166114dc576040517f08c379a00000000000000000000000000000000000000000000000000000000081526004016114d390612710565b60405180910390fd5b6002600083815260200190815260200160002060000160009054906101000a900473ffffffffffffffffffffffffffffffffffffffff1673ffffffffffffffffffffffffffffffffffffffff168173ffffffffffffffffffffffffffffffffffffffff1614806115ad57506002600083815260200190815260200160002060010160009054906101000a900473ffffffffffffffffffffffffffffffffffffffff1673ffffffffffffffffffffffffffffffffffffffff168173ffffffffffffffffffffffffffffffffffffffff16145b6115ec576040517f08c379a00000000000000000000000000000000000000000000000000000000081526004016115e390612b9f565b60405180910390fd5b600060026000848152602001908152602001600020600301546002600085815260200190815260200160002060020154611626919061279c565b9050600160009054906101000a900473ffffffffffffffffffffffffffffffffffffffff1673ffffffffffffffffffffffffffffffffffffffff1663a9059cbb83836040518363ffffffff1660e01b8152600401611685929190612433565b6020604051808303816000875af11580156116a4573d6000803e3d6000fd5b505050506040513d601f19601f820116820180604052508101906116c89190612488565b611707576040517f08c379a00000000000000000000000000000000000000000000000000000000081526004016116fe90612501565b60405180910390fd5b60006002600085815260200190815260200160002060040160006101000a81548160ff021916908315150217905550816002600085815260200190815260200160002060040160016101000a81548173ffffffffffffffffffffffffffffffffffffffff021916908373ffffffffffffffffffffffffffffffffffffffff1602179055507ff1898de79c348962fab7695532341027e5bceb0ea2a8785790fa7d7efeeee1298383836040516117be93929190612616565b60405180910390a1505050565b60008060009054906101000a900473ffffffffffffffffffffffffffffffffffffffff16905090565b6117fc611f27565b600260008381526020019081526020016000206040518060c00160405290816000820160009054906101000a900473ffffffffffffffffffffffffffffffffffffffff1673ffffffffffffffffffffffffffffffffffffffff1673ffffffffffffffffffffffffffffffffffffffff1681526020016001820160009054906101000a900473ffffffffffffffffffffffffffffffffffffffff1673ffffffffffffffffffffffffffffffffffffffff1673ffffffffffffffffffffffffffffffffffffffff16815260200160028201548152602001600382015481526020016004820160009054906101000a900460ff161515151581526020016004820160019054906101000a900473ffffffffffffffffffffffffffffffffffffffff1673ffffffffffffffffffffffffffffffffffffffff1673ffffffffffffffffffffffffffffffffffffffff16815250509050919050565b6002600083815260200190815260200160002060040160009054906101000a900460ff166119b5576040517f08c379a00000000000000000000000000000000000000000000000000000000081526004016119ac90612710565b60405180910390fd5b600073ffffffffffffffffffffffffffffffffffffffff166002600084815260200190815260200160002060010160009054906101000a900473ffffffffffffffffffffffffffffffffffffffff1673ffffffffffffffffffffffffffffffffffffffff1614611a5a576040517f08c379a0000000000000000000000000000000000000000000000000000000008152600401611a5190612c0b565b60405180910390fd5b60026000838152602001908152602001600020600201548114611ab2576040517f08c379a0000000000000000000000000000000000000000000000000000000008152600401611aa990612c9d565b60405180910390fd5b80600160009054906101000a900473ffffffffffffffffffffffffffffffffffffffff1673ffffffffffffffffffffffffffffffffffffffff1663dd62ed3e33306040518363ffffffff1660e01b8152600401611b1092919061254a565b602060405180830381865afa158015611b2d573d6000803e3d6000fd5b505050506040513d601f19601f82011682018060405250810190611b519190612389565b1015611b92576040517f08c379a0000000000000000000000000000000000000000000000000000000008152600401611b89906125bf565b60405180910390fd5b600160009054906101000a900473ffffffffffffffffffffffffffffffffffffffff1673ffffffffffffffffffffffffffffffffffffffff166323b872dd3330846040518463ffffffff1660e01b8152600401611bf1939291906125df565b6020604051808303816000875af1158015611c10573d6000803e3d6000fd5b505050506040513d601f19601f82011682018060405250810190611c349190612488565b611c73576040517f08c379a0000000000000000000000000000000000000000000000000000000008152600401611c6a90612501565b60405180910390fd5b336002600084815260200190815260200160002060010160006101000a81548173ffffffffffffffffffffffffffffffffffffffff021916908373ffffffffffffffffffffffffffffffffffffffff1602179055508060026000848152602001908152602001600020600301819055507f48bba6a72d4a9fae48e2469ce99518c38afec785fa4f3df38a1a76b03a979537823383604051611d1693929190612616565b60405180910390a15050565b60035481565b611d30611dd4565b600073ffffffffffffffffffffffffffffffffffffffff168173ffffffffffffffffffffffffffffffffffffffff1603611da25760006040517f1e4fbdf7000000000000000000000000000000000000000000000000000000008152600401611d999190612194565b60405180910390fd5b611dab81611e5b565b50565b600160009054906101000a900473ffffffffffffffffffffffffffffffffffffffff1681565b611ddc611f1f565b73ffffffffffffffffffffffffffffffffffffffff16611dfa6117cb565b73ffffffffffffffffffffffffffffffffffffffff1614611e5957611e1d611f1f565b6040517f118cdaa7000000000000000000000000000000000000000000000000000000008152600401611e509190612194565b60405180910390fd5b565b60008060009054906101000a900473ffffffffffffffffffffffffffffffffffffffff169050816000806101000a81548173ffffffffffffffffffffffffffffffffffffffff021916908373ffffffffffffffffffffffffffffffffffffffff1602179055508173ffffffffffffffffffffffffffffffffffffffff168173ffffffffffffffffffffffffffffffffffffffff167f8be0079c531659141344cd1fd0a4f28419497f9722a3daafe3b4186f6b6457e060405160405180910390a35050565b600033905090565b6040518060c00160405280600073ffffffffffffffffffffffffffffffffffffffff168152602001600073ffffffffffffffffffffffffffffffffffffffff1681526020016000815260200160008152602001600015158152602001600073ffffffffffffffffffffffffffffffffffffffff1681525090565b600080fd5b6000819050919050565b611fb981611fa6565b8114611fc457600080fd5b50565b600081359050611fd681611fb0565b92915050565b600060208284031215611ff257611ff1611fa1565b5b600061200084828501611fc7565b91505092915050565b600073ffffffffffffffffffffffffffffffffffffffff82169050919050565b600061203482612009565b9050919050565b61204481612029565b82525050565b61205381611fa6565b82525050565b60008115159050919050565b61206e81612059565b82525050565b600060c082019050612089600083018961203b565b612096602083018861203b565b6120a3604083018761204a565b6120b0606083018661204a565b6120bd6080830185612065565b6120ca60a083018461203b565b979650505050505050565b6120de81612029565b81146120e957600080fd5b50565b6000813590506120fb816120d5565b92915050565b60008060006060848603121561211a57612119611fa1565b5b600061212886828701611fc7565b9350506020612139868287016120ec565b925050604061214a86828701611fc7565b9150509250925092565b6000806040838503121561216b5761216a611fa1565b5b600061217985828601611fc7565b925050602061218a858286016120ec565b9150509250929050565b60006020820190506121a9600083018461203b565b92915050565b6121b881612029565b82525050565b6121c781611fa6565b82525050565b6121d681612059565b82525050565b60c0820160008201516121f260008501826121af565b50602082015161220560208501826121af565b50604082015161221860408501826121be565b50606082015161222b60608501826121be565b50608082015161223e60808501826121cd565b5060a082015161225160a08501826121af565b50505050565b600060c08201905061226c60008301846121dc565b92915050565b6000806040838503121561228957612288611fa1565b5b600061229785828601611fc7565b92505060206122a885828601611fc7565b9150509250929050565b60006020820190506122c7600083018461204a565b92915050565b6000602082840312156122e3576122e2611fa1565b5b60006122f1848285016120ec565b91505092915050565b6000819050919050565b600061231f61231a61231584612009565b6122fa565b612009565b9050919050565b600061233182612304565b9050919050565b600061234382612326565b9050919050565b61235381612338565b82525050565b600060208201905061236e600083018461234a565b92915050565b60008151905061238381611fb0565b92915050565b60006020828403121561239f5761239e611fa1565b5b60006123ad84828501612374565b91505092915050565b600082825260208201905092915050565b7f496e73756666696369656e742062616c616e6365000000000000000000000000600082015250565b60006123fd6014836123b6565b9150612408826123c7565b602082019050919050565b6000602082019050818103600083015261242c816123f0565b9050919050565b6000604082019050612448600083018561203b565b612455602083018461204a565b9392505050565b61246581612059565b811461247057600080fd5b50565b6000815190506124828161245c565b92915050565b60006020828403121561249e5761249d611fa1565b5b60006124ac84828501612473565b91505092915050565b7f5472616e73666572206661696c65640000000000000000000000000000000000600082015250565b60006124eb600f836123b6565b91506124f6826124b5565b602082019050919050565b6000602082019050818103600083015261251a816124de565b9050919050565b6000604082019050612536600083018561204a565b612543602083018461203b565b9392505050565b600060408201905061255f600083018561203b565b61256c602083018461203b565b9392505050565b7f496e73756666696369656e7420616c6c6f77616e636500000000000000000000600082015250565b60006125a96016836123b6565b91506125b482612573565b602082019050919050565b600060208201905081810360008301526125d88161259c565b9050919050565b60006060820190506125f4600083018661203b565b612601602083018561203b565b61260e604083018461204a565b949350505050565b600060608201905061262b600083018661204a565b612638602083018561203b565b612645604083018461204a565b949350505050565b7f4e487b7100000000000000000000000000000000000000000000000000000000600052601160045260246000fd5b600061268782611fa6565b91507fffffffffffffffffffffffffffffffffffffffffffffffffffffffffffffffff82036126b9576126b861264d565b5b600182019050919050565b7f47616d65206973206e6f74206163746976650000000000000000000000000000600082015250565b60006126fa6012836123b6565b9150612705826126c4565b602082019050919050565b60006020820190508181036000830152612729816126ed565b9050919050565b7f506c61796572206973206e6f742070617274206f6620746869732067616d6500600082015250565b6000612766601f836123b6565b915061277182612730565b602082019050919050565b6000602082019050818103600083015261279581612759565b9050919050565b60006127a782611fa6565b91506127b283611fa6565b92508282019050808211156127ca576127c961264d565b5b92915050565b7f4120647261772063616e206f6e6c7920626520736574746c656420696620626f60008201527f746820706c61796572732068617665206a6f696e656400000000000000000000602082015250565b600061282c6036836123b6565b9150612837826127d0565b604082019050919050565b6000602082019050818103600083015261285b8161281f565b9050919050565b7f4e487b7100000000000000000000000000000000000000000000000000000000600052601260045260246000fd5b600061289c82611fa6565b91506128a783611fa6565b9250826128b7576128b6612862565b5b828204905092915050565b7f526566756e6420746f2063726561746f72206661696c65640000000000000000600082015250565b60006128f86018836123b6565b9150612903826128c2565b602082019050919050565b60006020820190508181036000830152612927816128eb565b9050919050565b7f526566756e6420746f206f70706f6e656e74206661696c656400000000000000600082015250565b60006129646019836123b6565b915061296f8261292e565b602082019050919050565b6000602082019050818103600083015261299381612957565b9050919050565b60006040820190506129af600083018561204a565b6129bc602083018461204a565b9392505050565b7f4f6e6c79207468652063726561746f722063616e2063616e63656c207468652060008201527f67616d6500000000000000000000000000000000000000000000000000000000602082015250565b6000612a1f6024836123b6565b9150612a2a826129c3565b604082019050919050565b60006020820190508181036000830152612a4e81612a12565b9050919050565b7f43616e6e6f742063616e63656c20616674657220616e206f70706f6e656e742060008201527f686173206a6f696e656400000000000000000000000000000000000000000000602082015250565b6000612ab1602a836123b6565b9150612abc82612a55565b604082019050919050565b60006020820190508181036000830152612ae081612aa4565b9050919050565b7f526566756e64206661696c656400000000000000000000000000000000000000600082015250565b6000612b1d600d836123b6565b9150612b2882612ae7565b602082019050919050565b60006020820190508181036000830152612b4c81612b10565b9050919050565b7f496e76616c69642077696e6e6572000000000000000000000000000000000000600082015250565b6000612b89600e836123b6565b9150612b9482612b53565b602082019050919050565b60006020820190508181036000830152612bb881612b7c565b9050919050565b7f47616d6520616c72656164792068617320616e206f70706f6e656e7400000000600082015250565b6000612bf5601c836123b6565b9150612c0082612bbf565b602082019050919050565b60006020820190508181036000830152612c2481612be8565b9050919050565b7f42657420616d6f756e74206d757374206d61746368207468652063726561746f60008201527f7227732062657400000000000000000000000000000000000000000000000000602082015250565b6000612c876027836123b6565b9150612c9282612c2b565b604082019050919050565b60006020820190508181036000830152612cb681612c7a565b905091905056fea2646970667358221220c62c5d1e0671c099abef25243176bfc10eb2d471419ce8b01b1c63a2b7140b7564736f6c63430008180033",
  "linkReferences": {},
  "deployedLinkReferences": {}
}